:020000040000fa
:080000000001040000000000f3
:020000040000fa
:0400080014020000de
:020000040000fa
:04000c005602000098
:020000040000fa
:040010009602000054
:020000040000fa
:0400140034020000b2
:020000040000fa
:04001800760200006c
:020000040000fa
:04001c00b602000028
:020000040000fa
:04002000b602000024
:020000040000fa
:04002400b602000020
:020000040000fa
:04002800b60200001c
:020000040000fa
:04002c00b602000018
:020000040000fa
:04003000b602000014
:020000040000fa
:04003400b602000010
:020000040000fa
:04003800b60200000c
:020000040000fa
:04003c00b602000008
:020000040000fa
:04004000b602000004
:020000040000fa
:04004400b602000000
:020000040000fa
:04004800b6020000fc
:020000040000fa
:04004c00b6020000f8
:020000040000fa
:04005000b6020000f4
:020000040000fa
:04005400b6020000f0
:020000040000fa
:04005800b6020000ec
:020000040000fa
:04005c00b6020000e8
:020000040000fa
:04006000b6020000e4
:020000040000fa
:04006400b6020000e0
:020000040000fa
:04006800b6020000dc
:020000040000fa
:04006c00b6020000d8
:020000040000fa
:04007000b6020000d4
:020000040000fa
:04007400b6020000d0
:020000040000fa
:04007800b6020000cc
:020000040000fa
:04007c00b6020000c8
:020000040000fa
:04008000b6020000c4
:020000040000fa
:04008400b6020000c0
:020000040000fa
:04008800b6020000bc
:020000040000fa
:04008c00b6020000b8
:020000040000fa
:04009000b6020000b4
:020000040000fa
:04009400b6020000b0
:020000040000fa
:04009800b6020000ac
:020000040000fa
:04009c00b6020000a8
:020000040000fa
:0400a000b6020000a4
:020000040000fa
:0400a400b6020000a0
:020000040000fa
:0400a800b60200009c
:020000040000fa
:0400ac00b602000098
:020000040000fa
:0400b000b602000094
:020000040000fa
:0400b400b602000090
:020000040000fa
:0400b800b60200008c
:020000040000fa
:0400bc00b602000088
:020000040000fa
:0400c000b602000084
:020000040000fa
:0400c400b602000080
:020000040000fa
:0400c800b60200007c
:020000040000fa
:0400cc00b602000078
:020000040000fa
:0400d000b602000074
:020000040000fa
:0400d400b602000070
:020000040000fa
:0400d800b60200006c
:020000040000fa
:0400dc00b602000068
:020000040000fa
:0400e000b602000064
:020000040000fa
:0400e400b602000060
:020000040000fa
:0400e800b60200005c
:020000040000fa
:0400ec00b602000058
:020000040000fa
:0400f000b602000054
:020000040000fa
:0400f400b602000050
:020000040000fa
:0400f800b60200004c
:020000040000fa
:0400fc00b602000048
:020000040000fa
:04010000b602000043
:020000040000fa
:04010400b60200003f
:020000040000fa
:04010800b60200003b
:020000040000fa
:04010c00b602000037
:020000040000fa
:04011000b602000033
:020000040000fa
:04011400b60200002f
:020000040000fa
:04011800b60200002b
:020000040000fa
:04011c00b602000027
:020000040000fa
:04012000b602000023
:020000040000fa
:04012400b60200001f
:020000040000fa
:04012800b60200001b
:020000040000fa
:04012c00b602000017
:020000040000fa
:04013000b602000013
:020000040000fa
:04013400b60200000f
:020000040000fa
:04013800b60200000b
:020000040000fa
:04013c00b602000007
:020000040000fa
:04014000b602000003
:020000040000fa
:04014400b6020000ff
:020000040000fa
:04014800b6020000fb
:020000040000fa
:04014c00b6020000f7
:020000040000fa
:04015000b6020000f3
:020000040000fa
:04015400b6020000ef
:020000040000fa
:04015800b6020000eb
:020000040000fa
:04015c00b6020000e7
:020000040000fa
:04016000b6020000e3
:020000040000fa
:04016400b6020000df
:020000040000fa
:04016800b6020000db
:020000040000fa
:04016c00b6020000d7
:020000040000fa
:04017000b6020000d3
:020000040000fa
:04017400b6020000cf
:020000040000fa
:04017800b6020000cb
:020000040000fa
:04017c00b6020000c7
:020000040000fa
:04018000b6020000c3
:020000040000fa
:04018400b6020000bf
:020000040000fa
:04018800b6020000bb
:020000040000fa
:04018c00b6020000b7
:020000040000fa
:04019000b6020000b3
:020000040000fa
:04019400b6020000af
:020000040000fa
:04019800b6020000ab
:020000040000fa
:04019c00b6020000a7
:020000040000fa
:0401a000b6020000a3
:020000040000fa
:0401a400b60200009f
:020000040000fa
:0401a800b60200009b
:020000040000fa
:0401ac00b602000097
:020000040000fa
:0401b000b602000093
:020000040000fa
:0401b400b60200008f
:020000040000fa
:0401b800b60200008b
:020000040000fa
:0401bc00b602000087
:020000040000fa
:0401c000b602000083
:020000040000fa
:0401c400b60200007f
:020000040000fa
:0401c800b60200007b
:020000040000fa
:0401cc00b602000077
:020000040000fa
:0401d000b602000073
:020000040000fa
:0401d400b60200006f
:020000040000fa
:0401d800b60200006b
:020000040000fa
:0401dc00b602000067
:020000040000fa
:0401e000b602000063
:020000040000fa
:0401e400b60200005f
:020000040000fa
:0401e800b60200005b
:020000040000fa
:0401ec00b602000057
:020000040000fa
:0401f000b602000053
:020000040000fa
:0401f400b60200004f
:020000040000fa
:0401f800b60200004b
:020000040000fa
:0401fc00b602000047
:020000040000fa
:10020000ef8c20000e7f24000e018800000000000b
:10021000000020000000e000020032000001200089
:100220002002880014000700190107000000e00008
:1002300003003a00800a210001002000020037007c
:100240000000200001002000810f7000010032003a
:1002500014000700000020000000e000020032004f
:100260000000020000000000d011020000000000a9
:100270000040da000000fe004440a900c000200059
:100280000000e00003003200002020009001880000
:100290004440a800000006008a1f78008b1f7800e9
:1002a00000000600a1028800800478000000eb0036
:1002b0001f003700e284440054a0b4009905ba003e
:1002c000e284440054a0b4009906ba00e2844400d9
:1002d00054a0b4000006eb00476fde00fd07b2003b
:1002e000ae018800636ce10003003a00eaff0700fa
:1002f0000000eb000e003700606ce10008003a00df
:10030000004deb000a05e800020039003420ec0043
:100310000af0a0008b05e900f9ff3e000400370059
:100320006168e100010032000086eb000b0007006d
:1003300019c7ba001905ba000e04e00003003a001c
:100340000a00e000dbff3a0000000600fe07b200f2
:10035000ae0288008a047800f5ff37000cd0a300b5
:10036000e20f4d001c00390089027800354dba00bb
:100370000a05e800020039003420ec000af0a00071
:100380008b05e9000f003200254dba000a05e80090
:10039000020039003420ec000af0a0008b05e900cf
:1003a000080032000c00e0000600320015cdba0053
:1003b0000a05e800020039003420ec000af0a00031
:1003c0008b05e9008984e80054a0b4000b00e0002c
:1003d000e2ff3a00000006009902ba00055d7800cd
:1003e0008b05e900f7ff3200c82ade00055d7800c2
:1003f0008b05e900f3ff32000c00e000f1ff320052
:1004000019ddba00eeff37004a03040000000000c7
:10041000740504000000000000000400000000005b
:1004200022060400000000003600f800809fbe0095
:10043000829fbe00849fbe00869fbe000000fa001f
:100440008020a9000000eb00510807000080fa009e
:100450004f03be004f02be004f01be004f00be0062
:100460003600f900004006003600f800809fbe000c
:10047000829fbe00849fbe00869fbe000000fa00df
:10048000480807008040a90010002000400807002d
:100490000080fa004f03be004f02be004f01be00b5
:1004a0004f00be003600f900004006003600f8009c
:1004b000809fbe00829fbe00849fbe00869fbe00bc
:1004c0000000fa008060a90020002000300807002a
:1004d0000080fa004f03be004f02be004f01be0075
:1004e0004f00be003600f900004006003600f8005c
:1004f000809fbe00829fbe00849fbe00869fbe007c
:100500000000fa008080a9003000200020080700c9
:100510000080fa004f03be004f02be004f01be0034
:100520004f00be003600f900004006003600f8001b
:10053000809fbe00829fbe00849fbe00869fbe003b
:100540000000fa008600a9007000200010080700d3
:100550000080fa004f03be004f02be004f01be00f4
:100560004f00be003600f900004006000040da00ef
:100570000000fe000a00fa0011002000b1bf9f0039
:10058000c0bf9f006a805700bd0407004fb89700a6
:100590000080fa00000006000a00fa005100200066
:1005a000b1bf9f00c0bf9f006a805700b60407001c
:1005b0005fb897000080fa0000000600889fbe0028
:1005c00080047800604680000000e00004003a00eb
:1005d0000e0007000084eb000000e000080035007a
:1005e000684680000900e000050032000900440070
:1005f000060007000000e00001003d000084eb0061
:10060000080078004f04be0000000600800078005b
:100610000100e00003003a0000002000604688006e
:10062000000005000080eb0002002000828f5000d7
:1006300002003e00614688000000eb00000006005a
:100640000800fa0010079800210798003207980068
:10065000be009000010f7800070037002e009000c8
:1006600010407800ae0090008100e800210798005b
:10067000740607001e0fe9001e0078000000e0006d
:10068000f6ff3a003e0090000080fa0000000600ed
:1006900000000500889fbe0000047800010078007b
:1006a0008204780088017800090178001100200098
:1006b0000e000700890f5000010032000004eb001b
:1006c000080078004f04be00000006000000fa0099
:1006d000e88157004fb99700a1822000a034200084
:1006e000220207000080fa0000000600889fbe007a
:1006f0008a9fbe008c9fbe008e1f78000006780087
:100700000104780002007800830478000881b900b1
:10071000020778000200e000420032000800e0001a
:100720004100320082057800c90090006900900005
:10073000808f500004003900090078005000070045
:100740000000e00029003500004020001900600092
:100750000a0032000b017800a10020000c00780094
:1007600036000700800678000d00e0000600320029
:10077000610516000a854600040037000b05780065
:100780008006eb00010037000b057800490090005f
:10079000e9009000808050008a8f500002003100f4
:1007a000010578008006eb000a0178008c007800d3
:1007b0002c0007008a855500490090000a0040007f
:1007c000c00498000d00e000040032000900780029
:1007d000d50007000000e00004003a000b00e00034
:1007e000020032000a064600cfff370000802000da
:1007f000190060000200320009007800ca000700fa
:1008000000c0200019006000020032004900900082
:10081000e00498008b055700110009008885d80076
:10082000010037000000eb004f0778004f06be00c4
:100830004f05be004f04be00000006000300370055
:10084000b0cf1000050032000201e90080017800fd
:100850000200e000faff3a00000005000300780003
:10086000000006008001780002003700b1597800ce
:100870000201e9000200e000fcff3a00000006006f
:10088000889fbe008a1f780000047800c80090008e
:10089000680190000000eb00828f50003c0039009e
:1008a000180078002200290002016000e20f5100c8
:1008b00007003200012020000000e00001003500a8
:1008c00001202400008c70000080eb003000370015
:1008d0000200260002006000820f500009003a006a
:1008e00038009000808f5000060039000800780022
:1008f0008d000700800078000080eb000100e00020
:1009000023003a001805780000c0200000006500b0
:1009100018003a00a804900060022000080040007f
:10092000808f540013003a00002020004602070088
:10093000200498000000e00005003a002904980017
:10094000490498008904e800390498000800370039
:100950000a60a0000a0c78004004980001202000e2
:100960008080400031049800400c9800500c9800a2
:100970000c000700280090005004980038009000f8
:100980006004980000002600180c70000000eb00c6
:100990004f0578004f04be000000060040572000bd
:1009a0009c003700881f7800888c20001804e00025
:1009b00003003a00f9ff070020c0b300004c7800a4
:1009c0004f04780000000600889fbe0000047800f5
:1009d000080078005400070080047800000420001c
:1009e000180060000200320028009000b1010700ea
:1009f0000000eb0020049800384090000004e00064
:100a0000050035000000fb00dafe07000000e000f2
:100a1000010032008084eb00181090000000e0001c
:100a200008003200dcfe07000000e0000100320098
:100a30008084eb00181090009e0107000000eb007e
:100a40001014980000082000180060001500320003
:100a50000001eb006000b800a38720000202d00074
:100a600063027a00880f520005003a00000040003f
:100a700081804800008041000008eb00060037003c
:100a800061004000e08048000201e800e80f5000eb
:100a9000e08f5800f0ff3a00080078008501070059
:100aa0000e003700000c780000c0eb0030449800c6
:100ab00060022000080040002004980040049800d4
:100ac00050049800400c980060049800500c980066
:100ad0007004980076004400000c9800090078002b
:100ae0004f04be0000000600881f78000004eb00e1
:100af0006140b800e2ff2f00f3ff2f00a8030700ba
:100b000082882000620078000000e00001003200ce
:100b1000adff07000804e800e80f5400f4ff3a00b6
:100b20004f04780000000600889fbe000004780093
:100b30000800e0000f003a008004eb000904780090
:100b40008800d000a0872000610078000000e0004d
:100b500004003200f4ff07000000e00001003d0047
:100b60008084eb000804e800e80f5400f4ff3a002a
:100b70002500370000002200180060008004eb0010
:100b800021003200a80490000f0037000901510035
:100b9000384090000000fb0089007800a8fe0700a4
:100ba0000000e00007003c0028009000400498008e
:100bb00060049800500c98001890a0008084eb000e
:100bc000110037008084440048019000828f540057
:100bd000eeff39002800900040049800980078004b
:100be00002c020000281600001003a00380090003d
:100bf00001e8a30002003200600498000100370001
:100c0000500c98008004eb00090078004f04be00ef
:100c100000000600010020000100e0000800320092
:100c2000010080000100e000050032008100e900c1
:100c3000010088008100d0000200800000b178002f
:100c400000000600889fbe00000478000203be007a
:100c500081047800080278008901780012002000e1
:100c60000600be009a020700890f50000100320002
:100c70000004eb00080078004f04be0000000600ee
:100c80006800fa00889fbe008a9fbe00800478003a
:100c9000010478008205780003057800840078005c
:100ca00000f92f000f00400087020700d98f9f0036
:100cb000fb8f9f000000eb00a09f9f00e88f9f002c
:100cc0009a84fb000904fb008904ea00cf4cde0093
:100cd00050022000800f54000d003200e18f5400bc
:100ce0000b003a00090178008a0078007f8897009d
:100cf000df89970003000100f08f9f000000e000f3
:100d0000950032002f9897000000e800a09f9f00f8
:100d10000905450050022000800f540004003200f5
:100d20000800e000e6ff3a002f9897008b0037009c
:100d30000000eb00809f9f00f0979f00e0979f00ce
:100d4000d0979f00c0979f00b0979f000700370083
:100d5000e18b20000100500000004000218b2000aa
:100d600061007800cf98970001007000c09f9f003d
:100d70000a04780008057800ba4478008900fb006e
:100d8000e08b20005a0107000000e000f0ff3a006d
:100d9000a1c2b30081cf54000e003a008f889700a3
:100da0000180e900808f9f0010007800b09f9f00b5
:100db0000000e00005003d000000ea00b09f9f0039
:100dc0004f9897000020a000c09f9f000804e800f3
:100dd00010003700b09f9f00880078000000eb00f3
:100de00005003700f3ff2700830f50000200320098
:100df0006a02b9000400410001047800880078000c
:100e00003101fb000203b100e90f5100f5ff36008c
:100e1000b09f9f00e0c2b300984f10000200320064
:100e20000080eb0019003700a0c2b300d84f1000bb
:100e300007003a008f8897000180e900808f9f00ab
:100e400010007800909f9f000804e8001000370011
:100e50000000eb00909f9f0088007800050037009d
:100e6000f3ff2700830f5000020032006a02b9002e
:100e70000400410001047800880078003101fb0083
:100e80000203b100e90f5100f5ff3600909f9f006b
:100e9000984478008900fb00a08a20001401070014
:100ea0000000e000020032000804e8000100370002
:100eb0008044eb00a97f9f0080c6b30080cf540020
:100ec00006003a0098cf140010003a006640500027
:100ed000a07f9f000804e8000c003700c0c6b300e4
:100ee00080cf540009003a0098cf140007003a0060
:100ef00067404000d84f100002003a006e4050009a
:100f00000100370010c7b300a07f9f001801fb004d
:100f1000c3fb2f008f81410001f92f008f8040001b
:100f200020f92f000f004000150007000000e0002e
:100f300009003a00c1fb2f008f80400020f92f00ec
:100f40000f004000060107000000e000020035002d
:100f50000805e8005aff37000080eb004f05be008f
:100f60004f04be000080fa00000006000302780073
:100f700082017800010178002162200040ff3700e3
:100f8000889fbe008a1f78000004780030c5b30037
:100f9000804f51000800320030c7b300804f51002d
:100fa0000500320051c2b30028089000814f510063
:100fb00035003a00320037000869900050c6b3008f
:100fc000804f51001a003a0011017800640051006e
:100fd000800878001000be00000c9800110c9800ea
:100fe000881190000300e00007003d008081eb00c5
:100ff0000001eb004f0207000001be0088089000ce
:1010000081005100080037000001eb004902070091
:101010000081700003003200080990008200500037
:101020000100370088109000410c98001d00370027
:101030001180e90080087800100578007a04980093
:10104000881490000900e00004003d000a007800c8
:10105000b30007008004780007003700090178001a
:101060008000eb000a007800f4fd07000000e000bb
:10107000010032008a045000490c98000900370032
:101080008271780005003700808141000204e00091
:1010900001003a0001417800824978000000e80030
:1010a000200c98000000eb004f0578004f04be00b4
:1010b000000006000000e0002f003200c0017800b0
:1010c000e38f51002c0036000308a3002a003a00e9
:1010d000314680000100e00002003200810f500024
:1010e00004003100110098003046880016003700d7
:1010f00082007800110190000200e000020032003e
:10110000800f5100faff39001102780084824000fc
:10111000850f500018003900808f520003003a00fc
:101120008308420001007800070037000200e00059
:101130000300320083014000830f51000e0039008c
:101140001200980090009800900090000100e000cc
:101150000900320010014000828f500006003a0062
:10116000428c20000009eb001001780011084100ba
:10117000910090001100980000000600889fbe00ba
:1011800000047800214680000100e00002003200e7
:10119000010078000d00370031468000608c20008f
:1011a00004003700910f5400250036000180e8004c
:1011b000910090000100e000faff3a0010003700b3
:1011c000920f54001e0036000280e80010017800e3
:1011d0000200e000faff3a00110178003146800079
:1011e000608c200004003700910f5400140036007a
:1011f0000180e80091009000828f5000faff3a00d1
:1012000059468000888f540001003100880478001e
:1012100009007800480007000000e00004003a00e0
:10122000888f5400050032008904d100f5ff370093
:10123000091878009fff0700d2ff37000000eb007d
:101240004f04be0000000600881f780063044000c1
:101250000800a1008000eb00800f54002100360040
:10126000e30f540001003e00480020000800780011
:10127000c2ff07008000eb000000e0001900320010
:10128000900078009101780064815100880f51002e
:1012900003003100110190000208780007003700b8
:1012a0000881400002087800910190001301980025
:1012b00010017800110914008808780010017800e6
:1012c0000000eb000200e0000400320092019000f8
:1012d0000300e000010032000280e80020468800a0
:1012e0008180e800010078004f04780000000600cb
:1012f000020037000304e00006003200000178001d
:1013000002007800b041780081cf5100f9ff3a0027
:10131000010037000001eb00020078000000060029
:1013200080007800010178003104e000fdff3a0000
:101330000000510000000600800078000000eb0073
:101340000100e00005003400010078009bfc07006c
:10135000e10f400001003a000000eb000000060031
:101360000400fa00889fbe008a9fbe008c1f780090
:101370000004780001067800a81490002808900066
:1013800080845400380890008084540048089000fd
:1013900080845400580890008084540068089000ad
:1013a0008084540078089000808454000002220059
:1013b00090bf9f0000032300a0bf9f003810900043
:1013c0000028a30015003a000900e00013003400d3
:1013d000090578008a057800e20f55000100360003
:1013e0002b002000c80190000b017800ee80570010
:1013f0006800900003000100600498000000e00015
:10140000aa003200181090000b0040001014980041
:101410000b0555004240a900eeff3c002809900052
:101420000200e0000c003400c80190008c0078003d
:101430006800900003000100600498008080eb00c9
:101440000000e0009a0032009810900028089000f8
:101450000080400010149800380d90000a00e00051
:10146000110034008a057800e20f550001003600b3
:101470002b002000c80190000b017800ec80570081
:101480006800900003000100600498000000e00084
:1014900086003200181090000b00400010149800d5
:1014a0000b055500edff370008699000c808900053
:1014b00050c6b300804f510008003a000100e00020
:1014c0001500340058029000080990009809900017
:1014d0006800900004000100070037000100e000f0
:1014e0000d003400c801900001017800f800900060
:1014f0006800900003000100600498008080eb0009
:101500000000e0006a003200981090004808900047
:101510000080400010149800580d90000a00e00070
:10152000110034008a057800e20f550001003600f2
:101530002b002000c80190000b017800ec805700c0
:101540006800900003000100600498000000e000c3
:1015500056003200181090000b0040001014980044
:101560000b055500edff37000869900068089000f2
:1015700051c6b300814f51000d003a000000e00059
:101580001c00340078019000c8089000010141005f
:101590006111b800828fd2008381d200580290007e
:1015a0008000780068009000040001000900370006
:1015b0000000e0000f00340078019000c80890009f
:1015c00081004100c801900000017800680090008f
:1015d00003000100600498008080eb000000e00040
:1015e000330032009810900068089000008040009e
:1015f00010149800780d90000a00e00011003400eb
:101600008a057800e20f5500010036002b0020000b
:10161000c80190000b017800ec8057006800900032
:1016200003000100600498000000e0001f00320089
:10163000181090000b004000101498000b05550086
:10164000edff3700381090008000eb000028a30069
:10165000170032000900e000150034000905780089
:10166000e28f5400010036002a002000c8019000db
:101670000a017800ee805700680090000300010026
:10168000600498000000e00008003200181090008c
:101690000a004000101498008a8454004240a900b7
:1016a000eeff3c008000eb00010037008080eb0083
:1016b000010078004f0678004f05be004f04be00c1
:1016c0000080fa0000000600010878000000060013
:1016d000e6874700889fbe008a9fbe008c9fbe00a1
:1016e0008e1f780082bf9f0004047800029ab90020
:1016f000f4b79f000400e000590032000fb99700d2
:101700000200e000570032000006be000407780027
:10171000c800900068009000808f500004003900dd
:101720000800780056fc07000000e0003b00350090
:1017300000402000180060000a0032008e0178008e
:10174000a20020000c00be007a0007000005be00c9
:1017500000807500070032008c0455008904e80001
:10176000050037008e0478000a0020000b002000de
:10177000010037008e047800480190006800900056
:1017800002005000890f50000300310080047800ef
:101790000a0020000b0020006111b800828fd200e7
:1017a0008381d200090278000c00be0038000700d7
:1017b00009075700480090000900400040049800c5
:1017c0000a8575000400320008007800d6fc070086
:1017d0000000e00011003a000e00e0000f003200af
:1017e0006148b800808fd2008180d200000078006c
:1017f00000f0a1008c01d0000001d0000286410061
:101800004220a80081864e004200a9004220ae007e
:101810004200a8000c86d300bdff370000802000e6
:10182000180060000200320008007800befc0700cb
:1018300000c020001800600002003200c8019000c3
:10184000630498007fb097000e0750000fb997000f
:10185000110009000287d8008001780001003700dc
:101860008001eb00030078004f0778004f06be00b0
:101870004f05be004f04be006f00b100000006001f
:1018800000c0da000000060000c0da000000060018
:101890003400f8003200f8000203be00820270003b
:1018a0008502720002f0a6008301e800a30188000f
:1018b00000f0a6008100e800910188001500b20048
:1018c0000c003200104978000402e90015003200d3
:1018d00061014100020039003420ec0002002800c0
:1018e00061004000f7ff39003220ec0000002800c2
:1018f000f4ff3700100978000482e9000900320083
:1019000062014100020039003420ec00020028008e
:1019100062004000f7ff39003220ec000000280090
:10192000f4ff37003200f9003400f9000601be0070
:10193000000006000300e00007003200950180006f
:101940009101880010427800950188000402fb0094
:10195000820f5200110032008301e90095018000de
:101960009101880010427800950188000404e0008d
:1019700008003200000278001000b00000026a0087
:101980004260af0000f0a0000482d2000180b000ed
:10199000e8ff3700000020000100200000000600e2
:1019a000020ab900001bb9000200b8008100420021
:0819b000810043000000060065
:020000040000fa
:1019b80025730000200a000000000000e1e100009b
:0819c800e1e10000e100000074
:020000040000fa
:1019d0000200fa00004f7800114798007b46a900ea
:1019e0001e4078000054a000540107001e409000e3
:1019f000520107007b46a8000080fa0000000600a4
:101a00000400fa00204798007b46a9002e40900071
:101a10004a0107000040eb0048010700004f780032
:101a20007b46a8001e4078000080fa0000000600f7
:101a30000800fa00204798002107980062479800a4
:101a40007b46a9002e4090000054a0003b010700f7
:101a50000040eb00004f78000a0037002e00900095
:101a600010407800350107002e0090000000e800cb
:101a700020079800000a200001002000b60207009d
:101a80001e4fe8006e4090009e40780080cf5000ce
:101a9000f2ff35007b46a8000080fa000000060037
:101aa0000800fa0020479800210798006247980034
:101ab0007b46a9002e409000200107000040eb006b
:101ac000004f78000900370000c0eb001b01070041
:101ad000804078002e009000014878002e00900091
:101ae0000000e800200798001e4fe8006e409000bc
:101af0009e40780080cf5000f3ff35002e0090000c
:101b00008040eb00014878007b46a8000080fa0086
:101b1000000006000200fa00000f780052c0b30077
:101b20009e00780000cab300c1ff07007b26a80012
:101b300000e8230001002000870207007b26a9009f
:101b40000080fa00000006000000fa007b46a900b1
:101b500001c7b30070c0b3009dff0700001027004d
:101b6000210020007c0207007b46a8007b46a900dc
:101b700010ceb300f1000700001027002100200064
:101b8000750207007b46a8007b46a90020ceb30063
:101b9000ea00070000102700210020006e02070065
:101ba0007b46a8000080fa00000006000200fa0050
:101bb000000f780052c0b3009e00780010c6b3003a
:101bc000b7ff070001c7b30070c0b30080ff070074
:101bd000ddff07000080fa00000006000000fa00a8
:101be00070c0b30086ff07008000fb0000042000e7
:101bf000008060000000e000020032000040eb00c6
:101c00000100370010c0b3000080fa000000060099
:101c10000000fa0000202100a10720004e0207006a
:101c20000080fa00000006000000fa0021c0b300a6
:101c30000040eb0066ff070000d0270001002000f5
:101c4000450207000080fa00000006000600fa00c6
:101c500021ce280004000900315f78005e00b10049
:101c6000b1c0b3000040eb0059ff07008040eb001b
:101c700010c0b30056ff070011c0b30020c0b3006e
:101c800053ff070031c0b30030c0b30050ff07005e
:101c90008040eb0040c0b3004dff070021c3b300fc
:101ca00050c0b3004aff0700f1c0b30060c0b300ea
:101cb00047ff070052c0b3008e007800a0c2b300f7
:101cc0005bff070052c0b3008e00780000c3b30072
:101cd00057ff070051c0b30010c1b3003cff07001d
:101ce000000a2000010020001b020700b1c0b30061
:101cf0000040eb0036ff07007b26a800000a20000a
:101d000001002000140207000080fa000000060015
:101d10000000fa00f623ef00f823ef00fc23ef00a9
:101d200030002000202088000824ef000a24ef0063
:101d30000c24ef000e24ef0010122800a01f8800d2
:101d40000080fa00000006000400fa00000f78008e
:101d50001107980000000000e01f80006200600092
:101d60000000e000fcff3a001e0078001040780000
:101d70000080fb000020880000000000e11f8000c0
:101d800000022000008060000000e000fbff3a003d
:101d900000208000804078001e00900001487800fc
:101da0000080fa00000006001800fa00100f9800ea
:101db000210f9800320f98000000eb00000f780010
:101dc0000000eb00100798000000eb00700798007f
:101dd0000000eb00000f9800100020006007980042
:101de0001e0890000000e00005003a000000eb0033
:101df0005007980070004700200798000400370043
:101e0000ee009000510798009e089000210798006e
:101e10003e0890000000e00005003a000000eb00e2
:101e2000400798006e004700300798000500370013
:101e3000ee00900041079800be089000310798001e
:101e400000000000e01f8000620060000000e00071
:101e5000fcff3a001d003700e01f800062006000b8
:101e60000000e00009003a002e00900010407800c9
:101e70000080fb0000208800ae0090005e00900013
:101e800000804000200798001e0fe800e11f80003e
:101e900000022000008060000000e0000b003a001b
:101ea00000208000804078003e00900001487800cb
:101eb000be0090004e009000008040003007980067
:101ec0001e0090000000e800100798002e08900007
:101ed0009e007800808f5000dfff3900100037002f
:101ee000e11f800000022000008060000000e00090
:101ef0000b003a0000208000804078003e009000f7
:101f000001487800be0090004e0090000080400024
:101f1000300798001e0090000000e80010079800ad
:101f20009e0090002e089000808f5000ecff39003a
:101f30001e0078000080fa00000006000400fa008d
:101f4000204798000e80e8008e0078007eff070092
:101f50001e4078000080fa00000006000600fa002b
:101f6000000f780011079800220798002e019000ba
:101f70009e0090001e0078008bff07000080fa0092
:101f8000000006000000fa00a11f80000080200071
:101f9000008060000000e00002003200200020000d
:101fa00008003700a11f8000004020000080600072
:101fb0000000e000020032001000200001003700a5
:101fc0000000eb000080fa00000006000000fa00ac
:101fd000e01f80000080fa00000006000000fa0008
:101fe00080002000c01c88009a23ef0020022000ff
:101ff000001d8800a223ef0099e3a8009b43a800de
:102000000080fa00000006000000fa000000000056
:10201000d01c8000610060000000e000fcff320086
:10202000d01c8000620060000000e000010032006f
:102030009a23a900f01c8000004078000080fa007c
:10204000000006000200fa00004f780000000000c7
:10205000d11c800000202000008060000000e00013
:10206000fbff3a001e80fb00e01c88000080fa00a5
:10207000000006000000fa00d01c8000004078003c
:10208000614060000080fb0000f0a7000000ea0053
:102090000000ea004f00de00004078000080fa00f7
:1020a000000006000000fa00d11c80000020200083
:1020b000008060000000e00007003a00d11c8000b2
:1020c00000402000008060000000e00002003200bc
:1020d00010002000010037000000eb0000407800f5
:1020e0000080fa00000006000000fa00d01c80000a
:1020f0004800de00614060000080fb0000f0a700a7
:102100000000ea000000ea004f00de000040780016
:102110000080fa00000006000000fa00d01c8000d9
:102120000080fa00000006000000fa0099e3a80011
:102130009b43a8000080fa00000006000000fa009f
:1021400099e3a9009b43a9000080fa000000060063
:020000040000fa
:102150008a08000020000000800000000008000045
:102160000200000082000000ffff000002080000e3
:102170008800000082000000010000000028080024
:10218000290828000828080028082800081808003e
:10219000000000000000000000000000000000003f
:1021a0000000000000000000000000000002080025
:1021b0000101500008510800500850000850080064
:1021c000500840000800000000000000000000006f
:1021d00000000000000000000000000000000000ff
:1021e0000000020008020200780879000878080060
:1021f00078087800087808006808000000000000ef
:1022000000000000000000000000000000000000ce
:10221000000000000000000002082a000852080028
:1022200000000000000000000000000000000000ae
:10223000c80800000200000080000000aa0800009a
:102240001a00000082000000686a6c00747a4c007a
:10225000000001000002000004000800001000005f
:10226000000020002b2d230030000000ca080000d1
:10227000020000008200000004000000c40800000a
:102280000400000080000000cc08000002000000f4
:082290008000000000000000c6
:020000040000fa
:102298000000fa00000120003033880000402800c8
:1022a800d03388007001200010338800f08927009f
:1022b800b03388007426ef008826ef007226ef00fe
:1022c8008626ef006826ef007c26ef0070002000cd
:1022d80050338800c0002700f033880001088000d0
:1022e800f00b2000008160006004200071052000d0
:1022f80003102000804978008149780082497800dd
:10230800c13d800000fc2f00008060007000b30019
:10231800c03d8800e13e8000f00f2800808060000a
:102328000090200001007000e03e8800113f80000e
:10233800f00f28008080600000302000010070004d
:10234800103f8800d13e800000f82f000080600018
:102358000030a000d03e8800e13e800000f82f0049
:10236800008060007000b300e03e88000008800034
:10237800000178000260a0006004200071052000c0
:10238800031020008049780081497800824978004c
:102398000080fa00000006000c00fa008600070022
:1023a80019fe07001efe070026fe0700e60047008c
:1023b800010009008018eb008058eb006000b800ad
:1023c800008fbe000000eb0020079800803e200030
:1023d800010020001e01be00800f5100818f5900ae
:1023e8002800340002003700100020002007980061
:1023f800f8fd07000004e000fbff3a006600470014
:10240800e8fd07002e009000e10f500011003a008f
:102418000000eb0020079800d13380000002200064
:102428000080600000f0a7000000ea000000e9005a
:102438004f00de00004078000080fb006100600073
:102448004500dd00d13380000150a100010070007b
:10245800d0338800ee40900070c5b30080cf5000a4
:1024680006003a0066004700801f7800c0cd2800ab
:10247800801f780093f80700e48757006000b800d1
:10248800008fbe0012002000030020001e0f410034
:102498005e974900cdff37000000fa0000002300d6
:1024a800100888000621ef006821ef006a21ef007c
:1024b8000821ef0000702000500888000c21ef0070
:1024c8000e21ef007821ef007a21ef007c21ef0048
:1024d8007e21ef008021ef008221ef008421ef00b0
:1024e8008621ef001200200080072000a1092000ab
:1024f80013102000804978008149780082497800cb
:102508001200200060042000710520000310200044
:1025180080497800814978008249780000000000ed
:1025280000088000610060000000e000fcff3a0045
:102538000000000001088000000220000080600008
:102548000000e000fbff32000080fa0000000600f7
:020000040000fa
:10255800f03fb1000180b10006003500ee0309002c
:1025680000000000403fb1000180b100fbff3d00ca
:102578001000b000203fb0000200350000800900c4
:08258800000000000000060045
:020000040000fa
:102590000200fa00000f78009e00780001408800d9
:1025a000ffff37000000fa00a088200080077800b5
:1025b000208a2000000188000080fa000000060048
:1025c0000000fa0034ff070005000700b4ff070011
:1025d000cffd070081fe07000080fa000000060022
:0c25e0000000fa000080fa000000060075
:020000040000fa
:020000040005f5
:045e0000ffff0000a0
:020000040000fa
:020000040005f5
:045e2000ffffff0081
:020000040000fa
:020000040005f5
:045e300008ffff0068
:020000040000fa
:020000040005f5
:045e380067ffff0001
:020000040000fa
:020000040005f5
:045e40009fffff00c1
:020000040000fa
:020000040005f5
:045e4800ffffff0059
:020000040000fa
:020000040005f5
:045e5000dfffff0071
:020000040000fa
:020000040005f5
:045e5800ffffff0049
:00000001FF
